:020000040800F2
:10280000A011002091290008253900086D33000827
:1028100021390008972D0008FF460008000000003D
:10282000000000000000000000000000793F0008E8
:102830009B2D000800000000E5390008D940000881
:10284000AB290008AB290008AB290008AB29000818
:10285000AB290008AB290008AB290008AB29000808
:10286000AB290008AB290008AB290008AB290008F8
:10287000AB290008AB290008AB290008AB290008E8
:10288000AB290008AB290008AB290008AB290008D8
:10289000AB290008AB290008AB290008AB290008C8
:1028A000AB290008AB290008AB290008AB290008B8
:1028B000AB2900083D410008AB290008AB290008FE
:1028C000AB290008AB290008AB290008AB29000898
:1028D000AB2900084D420008AB2900085943000805
:1028E0009D2D0008AB290008AB29000800F002F874
:1028F00000F03EF80AA090E8000C82448344AAF15C
:102900000107DA4501D100F033F8AFF2090EBAE859
:102910000F0013F0010F18BFFB1A43F00103184713
:10292000983C0000B83C0000103A24BF78C878C139
:10293000FAD8520724BF30C830C144BF04680C60C5
:10294000704700000023002400250026103A28BF0D
:1029500078C1FBD8520728BF30C148BF0B60704711
:102960001FB59DE8030000F017F91FBD10B510BD9D
:1029700000F09FF91146FFF7F3FF02F0EDFA00F0C7
:10298000BDF903B4FFF7F2FF03BC01F0BAFE00008B
:102990000948804709480047FEE7FEE7FEE7FEE7F3
:1029A000FEE7FEE7FEE7FEE7FEE7FEE7044805492F
:1029B000054A064B70470000DD400008ED2800087E
:1029C000A0070020A0110020A0090020A0090020DD
:1029D000704770B5064600F0C3F8056806F10B00B5
:1029E00020F00704B4429CBF002070BD2B466A68EB
:1029F000BAB11068A04210D304F1080188423CBF6C
:102A00005068586007D35168101941601168091B5C
:102A1000016058601460101D70BD13465268002A92
:102A2000E7D12146284600F0A3F80028DED170BD8A
:102A300070B50446051F00F093F80068002C14BF21
:102A4000446870BD002C18BFAC423CBF204664688F
:102A5000F8D301680A18AA4218BF456003D12A6852
:102A600005461144016028684119A1421CBF6C60F1
:102A700070BD6168696021680844286070BD032AE0
:102A800040F2308010F0030C00F0158011F8013B8B
:102A9000BCF1020F624498BF11F801CB00F8013B72
:102AA00038BF11F8013BA2F1040298BF00F801CB36
:102AB00038BF00F8013B11F0030300F0A380083A8F
:102AC000C0F0088051F8043B083A51F804CBA0E864
:102AD0000810F5E7121D5CBF51F8043B40F8043BB9
:102AE000AFF30080D20724BF11F8013B11F801CBEE
:102AF00048BF11F8012B24BF00F8013B00F801CBBF
:102B000048BF00F8012B70474FF0000200B5134694
:102B100094469646203922BFA0E80C50A0E80C50FD
:102B2000B1F12001BFF4F7AF090728BFA0E80C50AE
:102B300048BF0CC05DF804EB890028BF40F8042BA7
:102B400008BF704748BF20F8022B11F0804F18BF14
:102B500000F8012B704770477047704770470000BE
:102B6000004870474807002070477047704770471B
:102B700038B504460A4600206946AFF300800028B5
:102B800008BF38BD02460099204600F071F80120C8
:102B900038BD012000F086B8F8B5AFF300800546D7
:102BA00000200C46102000BF0646A819A0420DD9EF
:102BB000324669460020AFF30080070008BF00F0EE
:102BC00071F80098A04218BF0546C419FFF7C8FF66
:102BD00005600746F01D20F007004619284600F062
:102BE0000AF8B44208BFF8BDA21B31463868BDE8F8
:102BF000F84000F03DB800210160C0E901107047C5
:102C00001020704710B5203AC0F00B80B1E8185082
:102C1000203AA0E81850B1E81850A0E81850BFF4C6
:102C2000F5AF5FEA027C24BFB1E81850A0E8185065
:102C300044BF18C918C0BDE810405FEA827C24BFB9
:102C400051F8043B40F8043B08BF7047D20728BF47
:102C500031F8023B48BF11F8012B28BF20F8023B96
:102C600048BF00F8012B704700487047400700201C
:102C7000034640688C46002818BF88423CBF034684
:102C80004068F8D318681844884207D00CF1030054
:102C900020F00700001D411A521A0146081D0A6063
:102CA000FFF7C6BE10B500F035F8BDE8104000F0E3
:102CB0002BB87546FFF7D8FFAE4605006946534668
:102CC00020F00700854618B020B5FFF76FFEBDE87D
:102CD00020404FF000064FF000074FF000084FF083
:102CE000000B21F00701AC46ACE8C009ACE8C00914
:102CF000ACE8C009ACE8C0098D4670470446AFF3A4
:102D000000802046FFF73DFE002801D001F0F9BC0D
:102D10007047000010B5012805D0002103A000F085
:102D200021F8012010BD09A1F8E7000053494752DE
:102D3000544D454D3A204F7574206F66206865618B
:102D400070206D656D6F7279000000003A20486553
:102D50006170206D656D6F727920636F727275702E
:102D60007465640070B505460C460A2000E06D1CD1
:102D700001F0CAFC35B128780028F8D102E0641CC3
:102D800001F0C2FC14B120780028F8D1BDE87040F1
:102D90000A2001F0B9BC00BFFEE7704710B50A2059
:102DA00001F0E2FF4FF4004000F01EF888B14FF44C
:102DB0000041084800F0B1F938B90748007808B96F
:102DC000012000E00020044908704FF4004000F0AA
:102DD00005F810BD000801403604002001490860D4
:102DE0007047000014040140014600200022074BF8
:102DF0001B6803EA0102054B14331B680B4013B137
:102E00000AB1012000E000207047000000040140EA
:102E1000002123498279002A3AD00A4612680368C1
:102E20009A430B461A600A1D126803689A430B1DE9
:102E30001A60027911440A6803681A430A60184A42
:102E40000832126803689A43154B08331A601A1D3A
:102E5000126803689A43124B0C331A604279102AA5
:102E60000ED11A1F126803681A430D4B08331A60FB
:102E70001A1D126803681A43094B0C331A600DE0DF
:102E80000749427911440A6803681A430A6005E059
:102E9000027911440A6803689A430A607047000087
:102EA000000401400149C860704700000020024052
:102EB00030B5044604254FF4302000F06FF8054685
:102EC000042D17D10C48006940F002000A4908613E
:102ED00008464461006940F0400008614FF430202A
:102EE00000F05CF805460448006941F6FD710840B1
:102EF00001490861284630BD0020024004200B49EA
:102F0000C96801F0010109B101200EE00749C96853
:102F100001F0040109B1022007E00449C96801F089
:102F2000100109B1032000E0042070470020024096
:102F30000348006940F080000149086170470000C3
:102F40000020024070B504460D460426F00200F051
:102F500025F80646042E11D10948006940F0010009
:102F6000074908612580F00200F018F80646044879
:102F7000006941F6FE71084001490861304670BDA4
:102F800000200240024803494860034848607047F7
:102F90002301674500200240AB89EFCD00B5024612
:102FA0000423FFF7ABFF034603E0FFF7A7FF034649
:102FB000521E012B01D1002AF7D102B90523184670
:102FC00000BD000030B500228B071C0F0F2303FA51
:102FD00004F20B4B8C1053F824309343084C8D10A3
:102FE00044F8253023468C1053F824308C07240FE6
:102FF00000FA04F42343024C8D1044F8253030BD10
:10300000080001402DE9F04102460025002600207D
:1030100000230024002791F803C00CF00F0591F85D
:1030200003C00CF0100CBCF1000F03D091F802C0EB
:103030004CEA050591F800C0BCF1000F31D01468CE
:1030400000202BE04FF0010C0CFA00F3B1F800C0A7
:103050000CEA03069E4220D183004FF00F0C0CFABD
:1030600003F7BC4305FA03FC4CEA040491F803C0DF
:10307000BCF1280F06D14FF0010C0CFA00FCC2F88D
:1030800014C00AE091F803C0BCF1480F05D14FF01D
:10309000010C0CFA00FCC2F810C0401C0828D1D367
:1030A0001460B1F800C0BCF1FF0F34DD546800209B
:1030B0002EE000F1080C4FF0010808FA0CF3B1F80B
:1030C00000C00CEA03069E4221D183004FF00F0C92
:1030D0000CFA03F7BC4305FA03FC4CEA040491F82C
:1030E00003C0BCF1280F05D100F1080C08FA0CF858
:1030F000C2F8148091F803C0BCF1480F07D100F169
:10310000080C4FF0010808FA0CF8C2F81080401CB7
:103110000828CED35460BDE8F081024600209368B1
:103120000B400BB1012000E0002070474161704767
:10313000016170474FF6FF71018002218170042107
:10314000C170704713490988C82904DA1249114A25
:103150001288885C05E000210E4A11800E49128811
:10316000885C00210D4A11600B4A0A4B1B88D15420
:103170000B49098821B10A490988491E084A11806A
:103180000121064A116003490988491C014A11803E
:1031900070470000480400204806002094012742A0
:1031A0004E040020F0B50B46FF24FF2509E010F87F
:1031B000016B86EA0401074E765C86EA0504064E3A
:1031C000755C1E00A3F10107BBB2F0D114705570FD
:1031D000F0BD000078610008786200082DE9FE4328
:1031E000002002900024019000905F2000F052FA2D
:1031F00002900021029802F02DFF5CD100BF3C48F4
:10320000007828B1694601A802F02AF984B200E0EA
:103210000124002C3FD1BDF8040002F0ACFC0546AF
:103220000022344B02F038FB074602F04FFA0290BE
:10323000029802F0D7FE05462F4A304B02F0AEFC52
:1032400001D22F4802909DF808002E4908709DF881
:10325000090048709DF80A0088709DF80B00C8703E
:103260004FF000510298C861BDF8000002F026FF3F
:1032700002909DF80800244908709DF809004870E4
:103280009DF80A0088709DF80B00C8704FF000513F
:103290000298086229E000201A4908704870887076
:1032A000C8701949087048708870C8704FF0005194
:1032B000C861086219E09DF80800124908709DF87D
:1032C000090048709DF80A0088709DF80B00C870CE
:1032D0004FF000510298C86100200B4908704870F7
:1032E0008870C8704FF000510862BDE8FE8300008E
:1032F000B804002000408F409A9999999999B93F54
:10330000CDCCCC3DB0040020B404002008B5002092
:103310000090F32000F0A6FD00909DF800001249F7
:1033200008709DF8010048709DF8020088709DF8B3
:103330000300C8704FF0005100984861F52000F07C
:1033400091FD00909DF80000074908719DF801006B
:1033500048719DF8020088719DF80300C8714FF014
:1033600000510098886108BD5804002000BFFEE7A6
:1033700010B500200F4908600F48006820F0704029
:103380000D4908600846006840F040500860002081
:103390000A49C1F89C010A2001F00CFD01200549F1
:1033A00008600A2001F006FD00200449C1F89801D8
:1033B00010BD000098812142000C01400080214294
:1033C0000C48806940F008000A4988610A48006892
:1033D00020F07F40084908600846006840F04C50E3
:1033E000086005480C30006840F0C00002490C310C
:1033F0000860704700100240000C014010B500202A
:103400000F4908600F48006820F070400D490860BF
:103410000846006840F04050086001200A49C1F8A1
:103420009C010A2001F0C6FC0120054908600A2021
:1034300001F0C0FC00200449C1F8980110BD000053
:1034400098812142000C01400080214270B5054660
:1034500000241748006820F07040154908600846AD
:10346000006840F000400860002616E00020114986
:1034700008600A2001F09EFC01200F49C1F8980164
:103480006006040E0B487C38006808B1601CC4B2AA
:103490000A2001F08FFC701CC6B2082EE6DB15B9BD
:1034A000FFF7ACFF01E0FFF763FF204670BD0000AF
:1034B000000C0140988121420080214270B50446F1
:1034C0001548006820F070401349086008460068FD
:1034D00040F040500860002010490860002517E0C7
:1034E000E0090E49091D08606006040E0A2001F07B
:1034F00061FC01200A49C1F898010A2001F05AFC38
:103500000020064908600A2001F054FC681CC5B27E
:10351000082DE5DB70BD0000000C014098812142C0
:103520000080214210B50F48006820F070400D491E
:1035300008600846006840F04050086001200A49D1
:1035400008600A49C1F898010A2001F033FC002004
:10355000054908600A2001F02DFC00200349C1F84C
:10356000980110BD000C01409C8121420080214245
:1035700010B50F48006820F070400D4908600846FB
:10358000006840F04050086000200A4908600A497D
:10359000C1F89C010A2001F00DFC012005490860DA
:1035A0000549C1F89C010A2001F004FC10BD00008F
:1035B000000C0140988121420080214210B5002476
:1035C0001548006820F070401349086008460068FC
:1035D00040F0004008600120104908600A2001F016
:1035E000E9FB01200E49C1F898010A2001F0E2FB35
:1035F00007E0601CC4B2FA2C03DDFFF7B9FF01201D
:1036000010BD0648803800680028F2D10349091F20
:10361000086000BFF4E70000000C01409C812142DB
:10362000008021424CF6CC40014908607047000000
:103630000030004010B500F013F810BD70B505461D
:103640000C4645F2555000F01FF8284600F010F8DF
:10365000204600F013F800F003F8FFF7E3FF70BD19
:103660004AF6AA2001490860704700000030004077
:1036700001494860704700000030004001498860FF
:1036800070470000003000400149086070470000AA
:10369000003000402DE9F0470446FFF791FE32204C
:1036A00001F088FBFFF73EFF322001F083FB5F2033
:1036B000FFF704FFFFF782FF00284ED1322001F010
:1036C00079FB0120FFF7C2FE25490870642001F054
:1036D00071FB0120FFF7BAFE21494870642001F018
:1036E00069FB0120FFF7B2FE1D498870642001F0DC
:1036F00061FB0120FFF7AAFE1949C870642001F0A0
:1037000059FB0020FFF7A2FE322001F053FBFFF728
:103710002FFF322001F04EFB11484078FF2806D1E0
:103720000F488078FF2802D10020BDE8F0870C48C0
:1037300080780B49497840EA012A5F2C0DD1504628
:1037400002F019FA0746074A074B02F063FA0546EA
:1037500001F0BCFF81464846E7E700BFE5E700000F
:10376000AC0400209A9999999999B93F1FB5012104
:10377000042000F059F90121084600F055F94FF4F2
:103780000040ADF8000048208DF80300694613485A
:10379000FFF738FC0F210020FFF714FC4FF4004026
:1037A000029000208DF80C000C208DF80D000120F7
:1037B0008DF80E0002A8FFF72BFB28208DF80400DF
:1037C00002208DF8050003208DF8060001208DF8F9
:1037D000070001A800F0AEF81FBD0000000801407E
:1037E00008B50121042000F01FF90121084600F06E
:1037F0001BF94FF48070ADF8000010208DF8030025
:1038000003208DF8020069463748FFF7FBFB4FF4B1
:1038100080713548FFF78CFC4FF40060ADF8000074
:1038200010208DF8030003208DF8020069462E4811
:10383000FFF7E8FB4FF48050ADF8000003208DF84F
:10384000020010208DF8030069462748FFF7DAFBD5
:103850004FF40050ADF8000069462348FFF7D2FB53
:103860004FF48040ADF8000069461F48FFF7CAFBDF
:103870004FF480411C48FFF75BFC4FF40040ADF86B
:10388000000069461848FFF7BDFB4FF40041164899
:10389000FFF74EFC0120ADF8000010208DF803006A
:1038A00069461148FFF7AEFB2020ADF8000010205C
:1038B0008DF8030069460C48FFF7A4FB4020ADF8E3
:1038C000000010208DF8030069460748FFF79AFBB7
:1038D0008020ADF8000010208DF8030069460248F2
:1038E000FFF790FB08BD00000008014008B501216A
:1038F000082000F099F80420ADF8000010208DF8A1
:10390000030003208DF8020069460448FFF77AFBA4
:1039100004210248FFF70CFC08BD0000000C014028
:1039200000BFFEE7704710B54FF4C06000F03AF8F2
:1039300010BD000070B5002100230F22C47804B32D
:10394000154C246804F4E064C4F5E064210AC1F174
:103950000403CA40447804FA03F1847814402143F4
:1039600009010E4C0678A155047804F01F050124C6
:10397000AC4005786D11AD0005F1E025C5F80041BA
:1039800009E0047804F01F050124AC40044D0678DA
:10399000761145F8264070BD0CED00E000E400E033
:1039A00080E100E002490143024A116070470000D3
:1039B0000000FA050CED00E0024A0A400243024B07
:1039C0001A60704780FFFF1F08ED00E002200349E6
:1039D000088008460088024908807047BC0400201F
:1039E000300400207047000029B1064AD269024322
:1039F000044BDA6104E0034AD2698243014BDA6185
:103A0000704700000010024029B1064A12690243C3
:103A1000044B1A6104E0034A12698243014B1A61A4
:103A2000704700000010024029B1064A9269024323
:103A3000044B9A6104E0034A92698243014B9A6104
:103A4000704700000010024029B1064AD2680243C4
:103A5000044BDA6004E0034AD2688243014BDA6027
:103A6000704700000010024030B500210022002401
:103A700000232D4D6D6805F00C0121B1042905D0FE
:103A8000082923D105E0294D056022E0274D056076
:103A90001FE0254D6D6805F47012234D6D6805F427
:103AA0008034022505EB92421CB9214D5543056037
:103AB0000BE01D4D6D6805F400351DB11C4D5543DF
:103AC000056002E0194D5543056002E0174D0560A1
:103AD00000BF00BF144D6D6805F0F0010909154DD8
:103AE0006B5C0568DD4045600F4D6D6805F4E06175
:103AF000090A104D6B5C4568DD4085600A4D6D68B4
:103B000005F46051C90A0B4D6B5C4568DD40C5602A
:103B1000054D6D6805F44041890B074D6B5CC56828
:103B2000B5FBF3F5056130BD0010024000127A00CC
:103B300000093D00140400202404002070B5044650
:103B40000D464FF480560DB9002070BD16B94FF6E2
:103B5000FF70FAE70BE000BF8021084800F002FD8B
:103B60000028F9D020780549091D0880641C280028
:103B7000A5F10101CDB2EED100BFE6E7003801406A
:103B80002DE9F04105460E4600243148008838B141
:103B900000BF03E000202855601C84B2B442F9DB6A
:103BA000002400BF2B4800780028FBD0284800885C
:103BB00000284AD00024002715E000F0DFF9FF2894
:103BC00004D100F0EFF9FF2800D10EE000F0D6F9A3
:103BD000F02804D100F0E6F9FE2800D105E0FFF757
:103BE000B1FA781C87B2C82FE7DB00BF002419E0C8
:103BF000FFF7A8FA2855601C84B2B44200D115E042
:103C000000F0BCF9FF2804D100F0CCF9FF2800D166
:103C10000CE000F0B3F9FE2804D100F0C3F9F0285D
:103C200000D103E00A4800880028E1D100BF08481D
:103C3000008850B9002008490880084908600849F0
:103C4000088001200749C1F894012046BDE8F081B1
:103C50004E04002050040020480400209401274214
:103C60004A0400200000274210B586B00446012116
:103C70000420FFF7D9FE01218803FFF7D5FE46484F
:103C800000F022FC4FF48070ADF8140004208DF891
:103C9000170003208DF8160005A94048FFF7B2F978
:103CA0004FF480713D48FFF743FA4FF40060ADF8E0
:103CB000140010208DF8170003208DF8160005A9B8
:103CC0003648FFF79FF94FF400613448FFF72EFAAA
:103CD0004FF48050ADF8140010208DF81700032029
:103CE0008DF8160005A92D48FFF78CF94FF4805187
:103CF0002A48FFF71BFA4FF40070ADF814000220B9
:103D00008DF8160018208DF8170005A92348FFF735
:103D100079F94FF48060ADF8140004208DF8170095
:103D200005A91E48FFF76EF925208DF80000002038
:103D30008DF801008DF8020001208DF8030068461F
:103D4000FFF7F8FD01940020ADF80800ADF80A0077
:103D5000ADF80C00ADF810000C20ADF80E000021FD
:103D60000D4800F0A5FB0C4800F0AEFB01A90A4885
:103D700000F054FC012240F22551074800F029FCD4
:103D8000012240F22441044800F023FC01210248B2
:103D900000F08EFB06B010BD003801400008014065
:103DA00030B587B005460C46FF208DF808008DF829
:103DB00009001748008800128DF80A00144800789E
:103DC0008DF80B0045F080008DF80C0000208DF878
:103DD0000D0002208DF80E0020128DF80F00E0B2C9
:103DE0008DF8100001AA092102A8FFF7DBF99DF860
:103DF00004008DF811009DF805008DF812009DF863
:103E00000E000930C1B202A8FFF798FE07B030BD1E
:103E10003004002008B56846FFF78CF90820ADF89B
:103E2000000004208DF8030003208DF8020069468D
:103E30000148FFF7E7F808BD0008014008B56846EB
:103E4000FFF778F90820ADF8000014208DF8030082
:103E500003208DF8020069460148FFF7D3F808BD3A
:103E6000000801402DE9F04F87B00646FFF7A8FA99
:103E7000322000F09FFFFFF755FB8020FFF71EFB6D
:103E8000FFF79CFBB0B93046FFF718FBFFF796FB36
:103E900080B900BF322000F08DFFFFF743FB812087
:103EA000FFF70CFBFFF78AFB012800D100E00020A0
:103EB0000028EFD1322000F07DFF0020FFF7C6FA86
:103EC0000446322000F076FF0020FFF7BFFA0546D7
:103ED0000020FFF7BBFAFFF74BFB322000F06AFF30
:103EE000FF2C05D1FF2D03D1002007B0BDE8F08FD6
:103EF00045EA042B2BF0030BF32E17D1584602F0A2
:103F0000DDF8019002F06EF80746144A144B01F0F8
:103F100081FE144A144BCDE9020101F079FFCDE98D
:103F2000040101F0D3FB82465046DEE7584602F01A
:103F3000C5F8019002F056F807460C4A0C4B01F008
:103F400069FE00220B4BCDE9020101F061FFCDE9D2
:103F5000040101F0BBFB81464846C6E7619FC6DE0F
:103F600007F7653FCDCCCCCCCC6C47407644CF77BF
:103F700001405F3F00001840704700000749098872
:103F8000C82904DA0649054A1288885C05E0002140
:103F9000024A118002491288885C70474804002058
:103FA00048060020064A1278521CD1B2C82902DA0B
:103FB000044A505C02E00021024A505C7047000055
:103FC000480400204806002010B500F001F810BD9C
:103FD0000CB50020019000903348006840F4803018
:103FE0003149086000BF3048006800F4003000909C
:103FF0000198401C0190009818B90198B0F5A06F85
:10400000F1D12948006800F4003010B1012000907F
:1040100001E0002000900098012843D12348006867
:1040200040F01000214908600846006820F00300B5
:1040300008600846006840F0020008601A484068BE
:10404000194948600846406848600846406840F49E
:10405000806048600846406820F47C10486008464C
:10406000406840F4E81048600846006840F08070FE
:10407000086000BF0C48006800F000700028F9D00C
:104080000948406820F00300074948600846406836
:1040900040F00200486000BF0348406800F00C0098
:1040A0000828F9D10CBD0000001002400020024099
:1040B000042808D14FF0E021096941F004014FF0D4
:1040C000E022116107E04FF0E021096921F00401CD
:1040D0004FF0E022116170477047000010B513489F
:1040E000006840F001001149086008464068104926
:1040F00008400E494860084600680E4908400B49D0
:1041000008600846006820F480200860084640687F
:1041100020F4FE0048604FF41F008860FFF754FF52
:104120004FF000600449086010BD0000001002401C
:104130000000FFF8FFFFF6FE08ED00E010B50121DA
:104140000A4800F019F84FF000500069401C4FF089
:104150000051086106480088401C05490880054850
:104160000078401C0349087010BD000000040040A6
:104170003204002034040020CA430282704721B177
:10418000028842F00102028004E002884FF6FE73CA
:104190001A40028070471AB183890B43838102E081
:1041A00083898B4383817047002202881D4B98428C
:1041B0000ED01D4B98420BD0B0F1804F08D01B4B56
:1041C000984205D01A4B984202D01A4B984204D11B
:1041D0004FF68F731A404B881A43174B984207D0FB
:1041E000164B984204D04FF6FF431A40CB881A432F
:1041F00002808B8883850B8803850A4B98420BD0FD
:10420000094B984208D00E4B984205D00D4B98426E
:1042100002D00D4B984201D10B7A03860123838291
:1042200070470000002C01400034014000040040B1
:1042300000080040000C0040001000400014004046
:1042400000400140004401400048014010B540F2E8
:1042500025513C4800F093F918B300203A49087002
:104260003A480088C82817DA3648001D00883849BF
:10427000384A1288885435480088401C33490880E1
:1042800034480088401C3349088008460088C82804
:1042900007DB0020088004E040F22551294800F0A7
:1042A000EFF840F22441274800F069F948B10120B5
:1042B0002549087023480088C4B22248001D0088A0
:1042C000C4B240F227711F4800F059F920B140F202
:1042D00027711C4800F0D4F828211A4800F0D9F8BA
:1042E00040F22771174800F0D4F840F226611548D3
:1042F00000F0CFF840F22551124800F0CAF840F221
:104300002441104800F0C5F840F646010D4800F081
:10431000C0F840F66A110B4800F0BBF8602109486C
:1043200000F0B7F84FF45871064800F0B2F84FF4B7
:104330001871044800F0ADF84FF4B071014800F076
:10434000A8F810BD00380140500400204E040020A1
:10435000480600204A04002010B54021154800F00E
:104360008FF840F22551134800F009F980B1002080
:10437000114908700F4800F0BDF9C4B20F48007829
:10438000401C0E49087008460078401E0C490C5429
:1043900040F22441074800F0F2F848B101200649F4
:1043A000087004480088C4B20248001D0088C4B2E6
:1043B00010BD0000004800404404002043040020D9
:1043C000E404002010B586B0044601210820FFF760
:1043D0002BFB01218804FFF707FB4FF48060ADF849
:1043E000140018208DF8170003208DF8160005A979
:1043F0002148FEF707FE4FF40060ADF81400482096
:104400008DF8170005A91C48FEF7FCFD019400205B
:10441000ADF80800ADF80A00ADF80C00ADF81000DA
:104420000C20ADF80E0001A9144800F0F7F80121A6
:10443000124800F03DF8012240F225510F4800F0EB
:10444000C8F8012240F224410C4800F0C2F8402193
:104450000A4800F015F827208DF8000000208DF89C
:10446000010003208DF8020001208DF8030068464A
:10447000FFF760FA06B010BD000C01400048004094
:1044800001F40072B2F5007F00D100BFCA43028080
:10449000704710B50022002340F66A14A14200D1F3
:1044A00000BF0A1201249440A3B2DC43048010BD73
:1044B00021B1828942F40052828104E082894DF662
:1044C000FF731A408281704710B504462048844229
:1044D00009D101218803FFF7B7FA00214FF480408A
:1044E000FFF7B2FA32E01B48844209D101214804A7
:1044F000FFF78AFA00214FF40030FFF785FA25E034
:104500001548844209D101218804FFF77DFA002172
:104510004FF48020FFF778FA18E01048844209D160
:104520000121C804FFF770FA00214FF40020FFF7C3
:104530006BFA0BE00A48844208D101210805FFF715
:1045400063FA00214FF48010FFF75EFA10BD0000FF
:10455000003801400044004000480040004C00404A
:104560000050004002460020B1F5007F00D100BF9E
:1045700013880B400BB1012000E00020704770B59C
:104580000246002400230025002040F66A16B142AE
:1045900000D100BFC1F3421501F01F03012606FA46
:1045A00003F3012D02D19689334006E0022D02D19A
:1045B000168A334001E0968A33400C12012606FA2F
:1045C00004F41688344013B10CB1012000E000203F
:1045D00070BDF0B50346002400260025002040F6FB
:1045E0006A17B94200D100BF1846C1F3421401F066
:1045F0001F06012707FA06F5012C01D10C3004E053
:10460000022C01D1103000E014301AB107682F439A
:10461000076002E00768AF430760F0BD2DE9F0478F
:1046200086B005460E460024A24600BFA1460027DC
:10463000B08900B100BF2F462C8A4CF6FF700440B1
:10464000F08804432C82AC894EF6F3100440B08805
:1046500031890843718908430443AC81AC8A4FF621
:10466000FF400440B0890443AC8201A8FFF7FCF985
:104670001F48874202D1DDF810A001E0DDF80CA050
:10468000A88900F4004040B10AEBCA0000EB0A1010
:1046900031684900B0FBF1F807E00AEBCA0000EB13
:1046A0000A1031688900B0FBF1F86420B8FBF0F023
:1046B00004012009642101FB1089A88900F400404D
:1046C00040B1322000EBC900B0FBF1F000F0070070
:1046D000044308E0322000EB09106421B0FBF1F044
:1046E00000F00F0004432C8106B0BDE8F087000005
:1046F0000038014001468888C0F30800704700BFB9
:10470000FEE7014600BF70477047000008B5012270
:1047100069460B4800F074FBBDF800004FF6FF71CE
:10472000884204D0BDF800000649088001E0FFF788
:104730004DF9044800884FF00051C86008BD0000E2
:1047400000F800083004002070B598B00646342107
:104750000BA8FEF7D9F9282101A8FEF7D5F900200A
:1047600000900025307AF17940EA0120C4B2FF20A0
:104770008DF82C008DF82D007B48008800128DF8F4
:104780002E00794800788DF82F0081208DF83000B8
:104790001E2C0BDD022400208DF831008DF83240F4
:1047A0008DF8330004208DF83400C7E020128DF816
:1047B00031008DF8324000208DF804008DF805009E
:1047C00001208DF806008DF8070040070069000EF3
:1047D0008DF808004FF000500069000C8DF80900BA
:1047E0004FF00050008A000A8DF80A004FF0005088
:1047F000007C8DF80B0003208DF80C0000208DF854
:104800000D005A480078D0B958484078B8B9574890
:104810008078A0B95548C07888B95448007970B9F3
:104820005248407958B95148807940B94F48C079C9
:1048300028B99DF80D00401CC0B28DF80D004C4801
:10484000007870B94A48407858B94948807840B9EA
:104850004748C07828B99DF80D00401CC0B28DF8BB
:104860000D004448007870B94248407858B9414832
:10487000807840B93F48C07828B99DF80D00401CA9
:10488000C0B28DF80D00394800788DF80E00374819
:1048900040788DF80F00354880788DF81000334847
:1048A000C0788DF81100314800798DF812002F483A
:1048B00040798DF813002D4880798DF814002B482D
:1048C000C0798DF815002A4800788DF81600284820
:1048D00040788DF81700264880788DF81800244815
:1048E000C0788DF81900244800788DF81A00224805
:1048F00040788DF81B00204880788DF81C001E48F9
:10490000C0788DF81D001B4800788DF81E001948EE
:1049100040788DF81F00174880788DF820001548E2
:10492000C0788DF82100002506E001A8415DE81D52
:104930000BAA1154681CC5B2A542F6DBE11D6A46FC
:104940000BA8FEF72FFC9DF80010E01D0BAA1154D8
:104950009DF80110401C1154401CC1B20BA8FFF778
:10496000EDF818B070BD000030040020580400209D
:10497000B004002038040020B4040020F0B591B049
:104980000446607B217B40EA01253C2102A8FEF71A
:10499000BBF800200190FF208DF808008DF8090079
:1049A0002E48008800128DF80A002C4800788DF8F7
:1049B0000B00207940F080008DF80C00A81C000A44
:1049C0008DF80D00A81CC0B28DF80E0000208DF8E7
:1049D0000F008DF810002E2D00DD2E25207A000608
:1049E000617A40EA0140A17A40EA0120E17A40EA96
:1049F0000106E079E0B92A4631460DF11100FEF7D3
:104A00003EF805F1090081B201AA02A8FEF7CAFB2F
:104A10009DF8041005F1090002AA11549DF8051033
:104A2000401C1154401CC1B202A8FFF787F813E0E4
:104A3000E079012810D1A079617940EA0127781F37
:104A400087B22A4604F10C013046FEF718F82079A7
:104A50000021FFF7A5F900BF11B0F0BD3004002020
:104A600010B58AB00446202102A8FEF74DF80020B8
:104A70000190FF208DF808008DF809001E4800887D
:104A800000128DF80A001C4800788DF80B00207980
:104A900040F080008DF80C0000208DF80D00032000
:104AA0008DF80E0000208DF80F008DF81000E079D1
:104AB00012490870084600788DF811009DF80E0024
:104AC000C11D01AA02A8FEF76DFB9DF804109DF818
:104AD0000E00C01D02AA11549DF805109DF80E008D
:104AE000083011549DF80E000930C1B202A8FFF73A
:104AF00025F80AB010BD0000300400203604002064
:104B000010B504460F480078B0B1607A012804D08F
:104B100020790221FFF744F910BD207AE17940EABB
:104B20000120094908800122084800F076F920791F
:104B30000021FFF735F903E020790821FFF730F96C
:104B400000BFE9E7360400203004002000F8000828
:104B500010B50446E079022815D120790021FFF72D
:104B60001FF9642000F000F900BF0948006800F454
:104B7000E06008490843001D05490860BFF3408F05
:104B800000BF00BFFEE720790221FFF709F910BD41
:104B90000CED00E00000FA0510B500241C48008868
:104BA000052834DBFEF7B2FBFEF718FB00F056F9E0
:104BB00000201749088017480078B0B91548407898
:104BC00098B91448807880B91248C07868B91148FB
:104BD000007950B90F48407938B90E48807920B92A
:104BE0000C48C07908B9601CC4B20B48007850B9B1
:104BF0000948407838B90848807820B90648C07814
:104C000008B9601CC4B214B900200449086010BD82
:104C10003204002058040020B00400208881214282
:104C200010B54FF48061C804FDF76EFF06A04FF089
:104C300000510068086005A14FF00050096841600C
:104C400001A10968816010BD636A7100312E3200D4
:104C500010B58CB0282102A8FDF756FF00242E487D
:104C6000007808B9012000E000202C4908602821C4
:104C700002A8FEF785FF00284BD09DF80E009DF896
:104C80000D1040EA0124E01D81B201AA02A8FEF73E
:104C900089FA9DF8041002AAE01D105C814238D107
:104CA0009DF8051004F10800105C814231D19DF897
:104CB0000B009DF80A1040EA012019490988884232
:104CC00006D09DF80B009DF80A1040EA012000BBB9
:104CD0009DF80C000A281AD2DFE800F0190519190E
:104CE00009190D11191502A8FFF72EFD10E002A8F1
:104CF000FFF744FE0CE002A8FFF7B2FE08E002A8AE
:104D0000FFF7FEFE04E002A8FFF722FF00E000BF6D
:104D100000BF0CB010BD0000360400208881214285
:104D20003004002010B56FF00400FFF7C1F90A4805
:104D300000680A49B0FBF1F009490870084600789C
:104D400000EB4001C1EBC0104FF6FF7101EAC0005B
:104D50000449088010BD00000004002000127A0001
:104D6000280400202A0400200146114A12884A43E0
:104D70004FF0E0235A6100229A611A46126942F00C
:104D800001021A6100BF4FF0E022106900F0010239
:104D90001AB100F48032002AF5D04FF0E0221269F7
:104DA00022F001024FF0E0231A6100229A6170475D
:104DB0002A0400200146114A12784A434FF0E023AA
:104DC0005A6100229A611A46126942F001021A6180
:104DD00000BF4FF0E022106900F001021AB100F4A8
:104DE0008032002AF5D04FF0E022126922F0010251
:104DF0004FF0E0231A6100229A61704728040020D6
:104E000010B50346002005E033F8104021F81040AB
:104E1000441CE0B29042F7DB10BD2DE9F04105469D
:104E20000E461746FEF7AEF83520FEF73BF828464B
:104E3000FEF73EF8002407E036F8141005EB4400B6
:104E4000FEF780F8601CC4B2BC42F5DB3520FEF7EB
:104E500029F8FEF76DF8BDE8F08100002DE9FF416B
:104E600035A103C9CDE9020100200190009034482A
:104E70000078642847DB33480078002859D00024A4
:104E800038E03148005D422833D12F49601C085C6E
:104E90004D282ED1E01C085C1C282AD100202B496B
:104EA000087048708870C870274AE11D525C264B14
:104EB000A11D595C42EA012000F046FE074600228F
:104EC000234B00F0E9FC054600F000FC00909DF843
:104ED00000001E4908709DF8010048709DF802000E
:104EE00088709DF80300C8704FF000510098486228
:104EF00002E0641C642CC4DB00BF00201049087071
:104F00001449087015E013480078401C11490870D6
:104F10000846007805280CDB08460078401E08701B
:104F200000200A49087048708870C8704FF000511E
:104F30004862BDE8FF81000011020B01E1000000A2
:104F40004304002044040020E4040020380400202E
:104F500000408F40450400204FF420514FF0006086
:104F6000FEF72AFDFEF7DFFCFFF75AFEFFF7DAFE39
:104F70004FF41650FFF726FAFEF722FA4FF4E1300D
:104F8000FEF772FE4FF47A71012000F021FBFEF76C
:104F900027FCFFF7BBFBFEF7A9FCFEF7E7FB0020B1
:104FA000114908601149C1F8AC0100F06FFA10B95D
:104FB00001200F49087040F644410720FEF73EFBF0
:104FC00011E0FEF737FBFFF7E7FD1420FFF7CCFEFB
:104FD000FFF73EFE0648007828B900F057FA10B9EE
:104FE000012003490870ECE7B00121420000214292
:104FF000B804002070B505460B480078012810D190
:10500000298909481C3000F0CFF9044614B14FF04B
:10501000FF3070BD284600F013FB002002490870E5
:10502000F7E74FF0FF30F4E71007002010B5042138
:105030000148FEF77DF810BD0008014010B50421BD
:105040000148FEF773F810BD0008014010B50821B3
:105050000148FEF76DF810BD0008014010B50821A9
:105060000148FEF763F810BD0008014010B50821A3
:105070000148FEF752F810BD0008014070B5054622
:105080000E4614463146284600F007F8A04202D0EA
:105090004FF0FF3070BD0020FCE730B502460B46F4
:1050A000FF20002113E0555C684008240BE000F06D
:1050B000800525B1312585EA4005E8B201E04506C5
:1050C000280E651EECB2002CF1DC4D1CA9B29942F1
:1050D000E9DB30BD10B500F0DBF810BD2DE9F04183
:1050E00005460E46174600F056F8012101EB450132
:1050F000C8B200F096F88046B8F1000F04D000F076
:1051000058F84046BDE8F081002405E0012000F099
:1051100009F83055601C84B2BC42F7DB00F049F856
:105120004046EFE770B505460026FFF78FFFFEF714
:1051300071FE072414E0322000F0C4F8FFF776FF78
:10514000322000F0BFF8FFF791FF08B1012000E026
:105150000020A0403043C6B2FFF770FF601E44B28B
:10516000002CE8DAFEF76AFE322000F0ABF815B149
:10517000FFF774FF01E0FFF769FF322000F0A2F8AB
:10518000FFF754FF322000F09DF8FFF757FFFFF7BD
:105190005DFF304670BD10B5FEF750FEFFF75EFFB5
:1051A000322000F08FF8FFF749FF322000F08AF834
:1051B00010BD10B5FEF742FEFFF750FF322000F0A1
:1051C00081F8FFF733FF322000F07CF8FFF73EFF55
:1051D000322000F077F810BD2DE9F04106460F4669
:1051E0009046FFF7D8FF7106080E00F01AF8054642
:1051F00025B1FFF7DEFF2846BDE8F081002409E075
:10520000385D00F00EF8054615B1FFF7D2FF03E058
:10521000601C84B24445F3DB00BFFFF7CAFF284699
:10522000EAE770B50546FEF709FE072415E0FFF72B
:1052300005FF45FA04F000F0010010B1FFF706FF8A
:1052400001E0FFF70BFF322000F03CF8FFF7EEFE25
:10525000322000F037F8601E44B2002CE7DAFFF786
:10526000EDFEFFF7F3FE322000F02CF8FEF7D2FD42
:10527000FFF7DCFE322000F025F8FFF7F7FE08B15B
:10528000012000E000200646FFF7D8FE304670BD42
:1052900008B501210420FEF7C7FB0C20ADF8000083
:1052A00014208DF8030003208DF80200694604489D
:1052B000FDF7A8FE0C210248FDF73AFF08BD0000EB
:1052C0000008014010B504462046FFF773FD10BDED
:1052D000F0B504464FF0FF3026883612277846EAAC
:1052E0000726B3B21D4E33821D4E1C4FBE610025F2
:1052F0002FE01C4E366856F82510002223E08E68F9
:1053000036F8126006F4704603F47047BE4218D1B6
:1053100003F48076AEB98E6816F8126006F0E006E7
:1053200003F0E007BE420CD18E6816F8126006F05A
:105330001F0603F01F07BE4203DC084EB1610020C8
:1053400004E0561C32B28E899642D8DC00BF6E1C37
:1053500035B2044EB688AE42CBDCF0BD100700205B
:1053600080630008B06500080246002300210AE0BF
:105370000C488069006850F82130987A904200D13A
:1053800006E0481CC1B20748806980888842EFDC8B
:1053900000BF044880698088884201D1002070479E
:1053A0001846FCE7100700202DE9FE4F0746884607
:1053B00008EB48001FFA80F96D464A4629465820F6
:1053C000FFF78CFE8246BAF1000F03D04FF0FF309A
:1053D000BDE8FE8F0024002614E0A11C6A5C281999
:1053E0000221FFF74BFE401C10B94FF0FF30EFE7F2
:1053F000285DB855601C295C701C3954E01C84B2CF
:10540000B01C86B24C45E8DB0020E1E72DE9F04115
:1054100007460C4615461E46384600F00EF8401C5E
:1054200018B94FF0FF30BDE8F0812046FFF74AFF82
:1054300031462846FFF7B8FFF5E770B5044602226B
:1054400021465820FFF7C8FE054615B14FF0FF3042
:1054500070BD0020FCE710B5002000F0A5F810BDDD
:1054600070B504460D46012000F09EF8401C10B9AE
:105470004FF0FF3070BD0448808B20800248C08B05
:1054800028800020F6E70000100700202DE9F041F9
:10549000334C0020A4F11C010870FFF71BFE02230F
:1054A00022464FF4FA712F48FFF7B0FF0546681CFB
:1054B00010B92846BDE8F08121792068000C40EA47
:1054C0000140C0F3072120790304226843EA124017
:1054D00041EA002082B22088C0F30720217840EA08
:1054E000012042EA004000226168090C41EA0241C1
:1054F000C1F307236168090C41EA024143EA012133
:105500008EB2A188C1F30723217943EA012146EA3B
:10551000014100231B400A4340EA0301100C40EA0A
:105520000140090C0E4A1C3AC2E9020101231C3257
:105530004FF47A710C48FFF769FF0546681C10B9F3
:105540004FF0FF30B6E70648FFF7C2FE0546681C7D
:1055500010B94FF0FF30ADE7FFF77DFFAAE700007D
:105560002C070020786300087A63000870B50446B1
:105570002068451D04F10C00FFF75FFF401C10B9C7
:105580004FF0FF3070BD2846FFF79CFE20890028B1
:1055900006DD0120034908702046FFF72BFDF1E7E7
:1055A0000020EFE71007002070B505462846FFF7FA
:1055B000DBFE044614B94FF0FF3070BD2046FFF704
:1055C000D5FF401C10B94FF0FF30F6E70020F4E79C
:1055D0007FB504460D4621460220FEF705FA01215B
:1055E0001648FEF7C9FD4FF6FF7000EA4500ADF81A
:1055F000040048F69F40ADF800000020ADF806001A
:10560000ADF8020069460D48FEF7CEFD21460B4875
:10561000FEF7B5FD224601210848FEF7BCFD1D201E
:105620008DF80C0001208DF80D0003208DF80E0080
:105630008DF80F4003A8FEF77DF97FBD0004004000
:105640002DE9F05F0546B5F80890CB464FEA4B00D0
:10565000FDF7BFF90746002406E01B4830F81400A8
:1056600027F81400601C04B24C45F6DB2889401E64
:1056700004B2002620E02889001B401E696851F80A
:10568000208037F81400001217F8141040EA0120A7
:105690001FFA80FAD8F8000038B15046D8F8001048
:1056A0008847094921F8160002E0074820F816A0AB
:1056B000601E04B2701C06B2002CDCDA3846FDF71E
:1056C000B7F9BDE8F09F00002C07002021F0004250
:1056D000A2F16052B2F5801F01F0004328BFD2F161
:1056E0007F6C0BD95FEA001C43EAC20242EB5070A8
:1056F00018BF704728BF20F001007047B2F5801F27
:10570000BCBF184670474FEA410C1CF5001F02D27F
:10571000084600F02CBD70B500F026FB00000089A3
:10572000FFF7F6BF4FF00040A0F580007047000083
:1057300010B591EA030F48BF83F0004300F1708376
:10574000841A71EB030C05D2121943EB0C03001BF6
:1057500061EB0C01DFF824E14FEA1154A4EB135C78
:105760001EEA430F18BF9EEA445F73D023EA0E037C
:10577000DCF1200E21EA045143F4801332D322FAE3
:105780000CFE10EB0E0023FA0CFE41EB0E01CCF1E7
:10579000200E03FA0EFE10EB0E0051F10001B1F5E0
:1057A000801FCCF1200E32D201EB045112FA0EF21E
:1057B000BDE8104058BF7047401C38BF5FEA420246
:1057C00018BF7047002814BF20F0010041F100010C
:1057D0004FEA410313F5001F38BF7047A1F1C041E4
:1057E00000F010BB012A43EB0302ACF1200CDCF10A
:1057F0001F0E32BF4FF0000E23FA0CF310EB030024
:1058000041EB0451B4EB115FD0D0A1EB045101F591
:10581000801149085FEA300001EB04510ED350F1CA
:10582000000038BF12FA0EFE08D1BDE81040C9E7EB
:10583000401C38BF5FEA4202CAD1C3E7BDE810404E
:105840004FEA410313F5001F38BF7047A1F1C04173
:1058500000F0D8BA9EEA445F08D011EA5E0FBDE8B6
:10586000104004BF01F0004100207047BDE8104027
:1058700070B500F079FA00BF64FBBE3E0000E0FFA7
:10588000491058BFC1F140415B1058BFC3F14043BC
:105890008B42EFF3008070472DE9C04130B4DFF850
:1058A000A0C23CEA111418BF3CEA131400F0EC80CB
:1058B00081EA03051CEA111444EAD57418BF1CEAF6
:1058C000131500F0C780A4EB05044FF0004545EA2E
:1058D000C12145EAC32341EA505143EA525304F13E
:1058E0007F74994204F500344FEAC0204FEAC22287
:1058F00008BF904200F09C804FEA13650FF24016FB
:10590000765D4FEA134506FB05F7C7F1807706FB86
:1059100007F74FEAD737A7FB03687642C8F5803808
:10592000A7FB06CE38BFA8F1010807FB08E64FF039
:10593000000EA6FB028CE6FB03CEDCF1000CCEF1E0
:10594000004E38BFAEF1010EA6FB0C584FF0000719
:105950004FF00005E6FB0E87A1FB08C6A0FB07CEB3
:1059600016EB0E0645F10005E1FB076515F1E04E6B
:105970007EBFA4F580345FEA46066D4116F18007CC
:1059800045F100054FEA17274FEA066647EA056723
:10599000A6F1DE46B6F1805F4FEA15251FD93846DD
:1059A00024F0010C05EBC471BCF1FE6F01EB0C118E
:1059B00002D8F0BCBDE8008124425CBF01F5801E26
:1059C0009EEAC47F02D4F0BCBDE80081244238D4F2
:1059D000F0BCA1F1C041BDE8004100F013BA4FEAAC
:1059E000D22242EA43524FEAD323A7FB02864FEA70
:1059F000D02040EA415007FB03661EEA0E0F4FEA33
:105A0000D12105FB026658BFA6EB0056B6EB005647
:105A10004FEA520E4EEAC37E18EB0E0E56EB530EB3
:105A2000BDD518EB02085E417F1C55F10005B6E7B5
:105A30004FF480154FF000074FF000064FF00008BC
:105A4000ADE7F0BC4FF0000001F1C04101F00041B2
:105A5000BDE8008111EA0C1F0CEA131500D00CE020
:105A600013EA0C1F00F025804FF00000F0BC81EA23
:105A7000030101F00041BDE80081F0BCBDE8004138
:105A800081EA030100F0BEB9F0BCBDE8004170B589
:105A900000F06AF9097EFC3E00F007B881EA0301D4
:105AA0004FF0000001F00041704781EA030100F06F
:105AB000A9B9F0BCBDE800414FF000002149704792
:105AC000FFFDFBF9F7F5F4F2F0EEEDEBE9E8E6E4C3
:105AD000E3E1E0DEDDDBDAD8D7D5D4D3D1D0CFCD4A
:105AE000CCCBCAC8C7C6C5C4C2C1C0BFBEBDBCBB83
:105AF000BAB9B8B7B6B5B4B3B2B1B0AFAEADACAB7E
:105B0000AAA9A8A8A7A6A5A4A3A3A2A1A09F9F9E57
:105B10009D9C9C9B9A999998979796959594939309
:105B2000929191908F8F8E8E8D8C8C8B8B8A8989A0
:105B30008888878786858584848383828281818023
:105B40000000FF070000F87F10F0004248BF40420D
:105B5000B0FA80F310FA03F10AD0C3F11D0303F584
:105B600080634FEA415002EB035202EBD1217047B0
:105B70004FF000007047B0FA80F310FA03F10AD03A
:105B8000C3F11D0303F580634FEA41504FEA03520E
:105B900002EBD12170474FF00000704751EA030C2F
:105BA00017D41CF5801F58BFBCF5801F00F106807C
:105BB000994218BF704708BF9042704707D711F548
:105BC000801F58BF13F5801F19D49942704789422E
:105BD00070471CF5801F08D5BCF5801FF7D58B4298
:105BE00018BF704708BF824270474FF4001C1CEB7F
:105BF000410F38BF1CEB430F01D28B42704770B589
:105C000000F0B2F8922449004FF000514FF0805359
:105C1000FFF736BEDFF848C170B51CEA111E1EBF83
:105C20001CEA13159EEA0C0F95EA0C0F00F06F802A
:105C300081EA030423EA4C134EEAD47E21EA4C1194
:105C400041F4801143F48013AE44A1FB024CA0FB4D
:105C50000365AEF17F7E361955EB0C05A1FB034CB5
:105C60004CF10003A0FB021C16EB0C06654153F13E
:105C70000003094218BF46F0010613F4007F0BD160
:105C80004FEA03314FEA0530340341EA155140EA47
:105C900016506FF003020AE04FEAC3214FEAC52015
:105CA000F40241EA555140EA56506FF0020202EB0D
:105CB0002E4201EB025585EACE710AD05FEA440C10
:105CC00018BF24F0004450F1000041F1000120EA27
:105CD000D47040F2FE7C624500D270BDA84214BF71
:105CE0004FF080444FF04044002E08BF0024BEF126
:105CF000806FA8BFA1F1C041BDE8704080F28280F2
:105D00004FF0000001F1C04101F0004170479EEAF0
:105D10000C0F0CEA131518BF95EA0C0F06D04FF0C4
:105D2000000081EA030E0EF0004170BD00F01CF887
:105D30008900013E00F007B800F009B84FEA430CB3
:105D40005FEA5C5C08D081EA030100F05BB84FEACF
:105D5000410C5FEA5C5CF6D14FF0000001497047EE
:105D60000000FF070000F87F0EF1020E2EF0030E78
:105D70005EF8046B364205D4012A43EB030515F5A2
:105D8000001F12D8012841EB010C1CF5001F0CD894
:105D90000ED14FEAD17C15F5001F0CEB4C0C0CF129
:105DA000020C08BF4CEBD37C04E04FF0080C01E080
:105DB0004FEAD37C0CEB4C0526FA05F606F00706F5
:105DC000B6F1040C06D20EEB860CBDE870404CF028
:105DD000010C6047DFE80CF0090B02024FF00041B4
:105DE0004FF00000A1F5002170BD194610460128B2
:105DF00051EB010418BFD4F5001484BF002001F05A
:105E0000004170BD0808A0F500114FEA310170474C
:105E100010B591EA030F48BF83F000433FF590AC03
:105E2000841A71EB030C07D212198CF0004C43EB6F
:105E30000C03001B61EB0C01DFF8A4E14FEA1154E5
:105E4000A4EB135C1EEA430F18BF9EEA445F00F008
:105E5000B08023EA6E03524221EA0451C3EB6E0381
:105E600038BF5B1EDCF1200E25D322FA0CFE10EBAE
:105E70000E0043FA0CFE41EB0E01CCF1200E03FAAA
:105E80000EFE10EB0E0051F10001CCF1200E29D4D2
:105E900012FA0EF201EB0451BDE8104058BF7047F2
:105EA000401C1CBFB2F1004F704700280CBF491CBA
:105EB00020F00100704712EB020E43EB030218BF03
:105EC0004FF0010E4EEA4202ACF1200CDCF11E0E46
:105ED00054D943FA0CFE10EB0E0051F1FF31CCF116
:105EE0001E0ED5D50EF1010E12FA0EFE404141EB09
:105EF000010101EB445C5FEA5C5C10D910EBDE70E1
:105F000001EB045138BFBEF1004FBDE8104018BF8F
:105F1000704700280CBF491C20F00100704730D2A8
:105F20004FEAD42C11F5001124F400641BD0B1FA0F
:105F300081F20B3AA41AA41ED2F12003914030FA48
:105F400003F31943904001EBCC71002C01EB045199
:105F5000BDE81040A8BF704701F1C0414FF00000FC
:105F600001F000417047B0FA80F310FA03F100D15C
:105F700010BDE41A173C4805C90AE4E701EB0451D7
:105F800010BD491001EB0451BDE810404FEA30004C
:105F900002E04FF0000170474A0008BF0042F8D00D
:105FA000B2F5001F28BF704701F000414FF000001C
:105FB00070479EEA445F07D011EA5E0FBDE81040CB
:105FC00004BF002100207047BDE8104070B5FFF706
:105FD000CBFE00BF40DFF63E83F000411046704725
:105FE0000000E0FF43004FEAD30C4FEA3C0C434073
:105FF0001FBF40070CF1605113F0FE4F70471CF0BB
:10600000006F03D100200CF0004170470CF00043FA
:1060100043EA507010B540EACC0000F062F800BFCF
:10602000000000924FEA0001FFF7ECBE4FF0004184
:106030004FF00000A1F500217047401058BFC0F19B
:106040004040491058BFC1F140418142EFF3008008
:106050007047000050EA010C00F113801CF5000F9E
:1060600058BFBCF5000F01D48842704707D710F520
:10607000000F58BF11F5000F15D4884270478942B0
:1060800070471CF5000F04D5BCF5000FF7D5814211
:1060900070474FF0807C1CEB400F38BF1CEB410F6A
:1060A00001D28142704710B500F01BF892244900DC
:1060B0004FF000504FF08051FFF7BFBFB0FA80F3B0
:1060C00010FA03F2C3F19D030AD0D90501EB1220A7
:1060D000530638BF704700F1010008BF20F00100EF
:1060E00070470EF1020E2EF0030E5EF8044B2442B0
:1060F00004D44FEA4102B2F17F4F11D84FEA400376
:10610000B3F17F4F0CD80ED14FEAD07CB2F17F4F64
:106110000CEB4C0C0CF1020C08BF4CEBD17C04E0F6
:106120004FF0080C01E04FEAD17C0CEB4C0324FA51
:1061300003F404F00704B4F1040C06D20EEB840C53
:10614000BDE810404CF0010C6047DFE80CF0070898
:1061500002024FF00040A0F5800010BD084642004A
:1061600018BFD2F1807288BF00F0004010BDFF213F
:1061700041EAD050C005704700C1814001C0804154
:1061800001C0804100C1814001C0804100C1814007
:1061900000C1814001C0804101C0804100C18140F7
:1061A00000C1814001C0804100C1814001C08041E7
:1061B00001C0804100C1814001C0804100C18140D7
:1061C00000C1814001C0804100C1814001C08041C7
:1061D00001C0804100C1814000C1814001C08041B7
:1061E00001C0804100C1814001C0804100C18140A7
:1061F00000C1814001C0804101C0804100C1814097
:1062000000C1814001C0804100C1814001C0804186
:1062100001C0804100C1814000C1814001C0804176
:1062200001C0804100C1814001C0804100C1814066
:1062300000C1814001C0804100C1814001C0804156
:1062400001C0804100C1814001C0804100C1814046
:1062500000C1814001C0804101C0804100C1814036
:1062600000C1814001C0804100C1814001C0804126
:1062700001C0804100C1814000C0C101C30302C20E
:10628000C60607C705C5C404CC0C0DCD0FCFCE0E76
:106290000ACACB0BC90908C8D81819D91BDBDA1AE6
:1062A0001EDEDF1FDD1D1CDC14D4D515D71716D656
:1062B000D21213D311D1D010F03031F133F3F232C6
:1062C00036F6F737F53534F43CFCFD3DFF3F3EFE36
:1062D000FA3A3BFB39F9F83828E8E929EB2B2AEAA6
:1062E000EE2E2FEF2DEDEC2CE42425E527E7E62616
:1062F00022E2E323E12120E0A06061A163A3A26286
:1063000066A6A767A56564A46CACAD6DAF6F6EAEF5
:10631000AA6A6BAB69A9A86878B8B979BB7B7ABA65
:10632000BE7E7FBF7DBDBC7CB47475B577B7B676D5
:1063300072B2B373B17170B0509091519353529245
:1063400096565797559594549C5C5D9D5F9F9E5EB5
:106350005A9A9B5B99595898884849894B8B8A4A25
:106360004E8E8F4F8D4D4C8C448485458747468695
:1063700082424383418180403682202F20320000B8
:10638000000000000000000000000000000000000D
:106390000A0C000000000000657468616E6F6C5F9D
:1063A0007369676E616C000000000000000000006F
:1063B00000000000000000000000000068325F7371
:1063C00069676E616C0000000000000000000000C2
:1063D00000000000000000000000000000000000BD
:1063E00074564F4300000000000000000000000051
:1063F000000000000000000000000000000000009D
:1064000000000000636F325F657100000000000053
:10641000000000000000000000000000000000007C
:106420000000000000000000626173656C696E6529
:10643000310000000000000000000000000000002B
:1064400000000000000000000000000062617365B1
:106450006C696E6532000000000000000000000062
:1064600000000000000000000000000010270000F5
:10647000000000000000000020036961715F696E88
:10648000697400000000000000000000000000002F
:1064900000000000000000000000000050C30000E9
:1064A000600400200200010020086961715F6D65D1
:1064B00061737572650000000000000000000000BC
:1064C0000000000000000000000000001027000095
:1064D000680400200200020020156961715F676591
:1064E000745F626173656C696E6500000000000096
:1064F0000000000000000000000000001027000065
:106500000000000000000300201E6961715F7365D8
:10651000745F626173656C696E6500000000000065
:10652000000000000000000000000000400D03001B
:106530007004002002000A0020506D6561737572BE
:10654000655F7369676E616C730000000000000096
:106550000000000000000000000000001027000004
:106560000000000000000C0020617365745F616230
:10657000736F6C7574655F68756D696469747900B3
:1065800000000000000000000000000009002000E2
:1065900078040020050000008C6500080100000060
:1065A0008C040020060000008E6500080100000039
:1065B000A404002002000000D865000800040020A8
:1065C000BC0000002829000894660008BC040020D4
:1065D000E40C00004429000800A24A040000000066
:1065E0000000000001020304060708090000000083
:1065F0000102030401020304060708090204060855
:106600000000000001010100020000000000000085
:106610000000000000000000000000000100000079
:106620000000000000000000010000000000000069
:106630000000000000000000DC63000800640008A7
:10664000246400084864000894630008B8630008E4
:106650006C6400089C640008CC640008FC640008BA
:106660002C6500086C6400089C640008CC64000879
:10667000FC6400082C6500085C650008A065000843
:10668000906500080000000000000000000000000D
:046690000000000006
:04000005080028EDDA
:00000001FF
